:100000000C94AF000C94E0000C94E0000C94E00021
:100010000C94E0000C94E0000C94E0000C94E000E0
:100020000C94E0000C94E0000C94E0000C94E000D0
:100030000C94E0000C94E0000C94E0000C94E000C0
:100040000C94E0000C94E0000C94E0000C94E000B0
:100050000C94E0000C94E0000C94E0000C94D40D9F
:100060000C94E0000C94A10D0C94C90C0C94E000CD
:100070000C94E0000C94E0000C94E0000C94E00080
:100080000C94E0000C94E0000C94E0000C94E00070
:100090000C946E0D0C948A0C0C94E0000C94E0000F
:1000A0000C94E0000C94E0000C94E0000C94E00050
:1000B0000C94E0000C94E0000C94E0000C94E00040
:1000C0000C94E0000C94E0000C94E0000C943B0DC8
:1000D0000C944B0C0C94E0000C94080D0C940C0C3C
:1000E0000C94E0000C94FF010C94E2000C94E903E2
:1000F0000C9488030C94950A0C94DF040C94EF0381
:100100000C9491030C948E030C940A010C947701C7
:100110000C9485030C944C010C947A050C944F05B7
:100120000C948B030C948D0B0C942B050C94930165
:100130000C94610B0C94E5040C941E0E0C9429078E
:100140000C942F030C9457010C9404020C94EC03B0
:100150000C942C030C9432030C94E2041E0E112414
:100160001FBECFEFD1E2DEBFCDBF00E00CBF13E07A
:10017000A0E0B2E0E0E5F9E200E00BBF02C00790CA
:100180000D92AC3BB107D9F72BE0ACEBB3E001C06B
:100190001D92A534B207E1F710E0CFEAD0E000E00D
:1001A00006C021970109802FFE010E948F14CE3ACC
:1001B000D10780E00807A9F70E94E20F0C94C01154
:1001C0000C940000CF92DF92EF92FF920F931F9357
:1001D000CF93DF936C01EB017B01E40EF51E00E091
:1001E00010E0CE15DF0561F06991D601ED91FC912B
:1001F0000190F081E02DC6011995080F191FF1CF6C
:10020000C801DF91CF911F910F91FF90EF90DF9088
:10021000CF9008950F931F93CF93DF93FC01A68592
:10022000B7858D01005C1F4FE80188819981019697
:100230008F739927AD014E5B5F4FEA0128813981A9
:1002400082179307D1F3E80128813981A20FB31FE8
:100250006C93A685B785A05CBF4F11969C938E9337
:10026000A689B7892C9181E090E0078C02C0880FA5
:10027000991F0A94E2F7822B8C9381E081A3048872
:10028000F589E02D80818064808381E090E0DF91BA
:10029000CF911F910F910895FC0181A1882329F02E
:1002A000A489B5898C9186FFFBCF11A20895FC012A
:1002B000A485B585FD01E05CFF4F20813181329638
:1002C000808191812817390779F080819181A80F69
:1002D000B91F8C91208131812F5F3F4F2F733327BE
:1002E0003183208390E008958FEF9FEF0895DC0124
:1002F0001C96ED91FC911D97DF01A05CBF4F2D91E5
:100300003C91119712968D919C911197281739075E
:1003100039F08D919C91E80FF91F808190E008954C
:100320008FEF9FEF0895FC0124853585F901E05C8E
:10033000FF4F80819181329620813181821B930B06
:100340008F73992708958FE596E00E94930185EBBE
:1003500095E00E9493018BE095E00E94930181E675
:1003600094E00C949301FB01E05CFF4F208131810C
:100370002F5F3F4F2F733327DB01AE5BBF4F4D9194
:100380005C912417350741F040815181DB01A40FB6
:10039000B51F8C9331832083089508953FB7F89457
:1003A0008091C1039091C203A091C303B091C40393
:1003B00026B5A89B05C02F3F19F00196A11DB11DC0
:1003C0003FBFBA2FA92F982F8827820F911DA11DFB
:1003D000B11DBC01CD0142E0660F771F881F991F38
:1003E0004A95D1F708952FB7F8946091BD037091A5
:1003F000BE038091BF039091C0032FBF0895FC01FD
:10040000EA57FB4F80810895AF92BF92CF92DF925F
:10041000EF92FF920F931F93CF93DF9300D01F9221
:100420001F92CDB7DEB78C016B01643671053CF0CD
:10043000FC01EA57FB4F8081882309F478C0DA0178
:10044000ED91FC910190F081E02DB801615E7D4F4E
:10045000CA0119957801B8EEEB1ABDEFFB0A2FEF30
:10046000F70120832EEF31962083319680833196D9
:1004700090833196292F280F209520833196C082B2
:10048000D801A25EBD4FDC9245E050E020E030E0B4
:10049000BC016A5F7F4F6417750734F0A1912A0F82
:1004A000311D4F5F5F4FF7CF6C01F8E0CF0ED11CCD
:1004B000800F911FFC01E15EFD4F2095208321E01C
:1004C000C21622E0D206CCF45701C5018E199F094D
:1004D0008C159D0584F4D80112968D919C911397EB
:1004E000F50161915F01DC01ED91FC910190F081DA
:1004F000E02D1995EACFC6011CC082E592E09A83EF
:10050000898383E08B838CE892E09D838C83D80180
:10051000ED91FC910190F081E02DAE014F5F5F4FB6
:1005200067E070E0C80119958FEF9FEF02C080E08F
:1005300090E00F900F900F900F900F90DF91CF9160
:100540001F910F91FF90EF90DF90CF90BF90AF90F1
:1005500008950F931F93CF93DF93CDB7DEB72A97FC
:100560000FB6F894DEBF0FBECDBF8C0186E492E0DB
:100570009A8389831B821C821D821E821F82188699
:1005800019861A86D801ED91FC910190F081E02D39
:10059000AE014F5F5F4F6AE070E0C80119950E949D
:1005A000F301F80160877187828793872A960FB6D7
:1005B000F894DEBF0FBECDBFDF91CF911F910F9199
:1005C0000895CF92DF92EF92FF92FC011082118288
:1005D00012821382DB0120E030E04D9150E0022EC8
:1005E00002C0440F551F0A94E2F7052E000C660B5B
:1005F000770BC080D180E280F3804C295D296E2981
:100600007F294083518362837383285F3F4F203269
:10061000310519F7FF90EF90DF90CF900895CF92BA
:10062000DF92EF92FF9220E030E06A017B01022E20
:1006300004C0F694E794D794C7940A94D2F7FC01C7
:10064000C192CF01285F3F4F2032310571F7FF90F3
:10065000EF90DF90CF90089585EC92E0089586EEBC
:1006600092E008958F929F92AF92BF92CF92DF92C5
:10067000EF92FF920F931F93CF93DF9300D01F92BF
:10068000CDB7DEB77C018B01CE0101960E94E1025D
:1006900089819A81AB81BC814C015D0124E0820E8D
:1006A000911CA11CB11C6801E4E0CE0ED11CA60176
:1006B000401B510B60E070E0481559056A057B0549
:1006C00048F4F60141916F019F0122503109F9016F
:1006D0004083EDCFF801E80FF91F13820D5F1F4F24
:1006E000F7011383028304960F900F900F900F90E1
:1006F000DF91CF911F910F91FF90EF90DF90CF90FE
:10070000BF90AF909F908F90089586EF92E00895EC
:100710008AE192E0089587E193E0089588E393E009
:1007200008958F929F92AF92BF92CF92DF92EF92F5
:10073000FF920F931F93CF93DF9300D01F92CDB7FB
:10074000DEB77C018B01FB018191BF01F701828340
:10075000CE0101960E94E10289819A81AB81BC8120
:100760004C015D01F5E08F0E911CA11CB11C6801CC
:1007700025E0C20ED11CA601401B510B60E070E0C9
:10078000481559056A057B0548F4F60141916F014A
:100790009F0122503109F9014083EDCFF801E80FA4
:1007A000F91F14820C5F1F4FF70114830383059612
:1007B0000F900F900F900F90DF91CF911F910F919D
:1007C000FF90EF90DF90CF90BF90AF909F908F9071
:1007D00008958BE493E008958CE693E008954F929A
:1007E0005F926F927F928F929F92AF92BF92CF92C1
:1007F000DF92EF92FF920F931F93CF93DF93CDB7CA
:10080000DEB72C970FB6F894DEBF0FBECDBF7C01CC
:100810008B01DB018C9190E0F70193838283119629
:100820002C91922B938382836E5F7F4FCE0109962A
:100830000E94E10289849A84AB84BC84B501A4013E
:100840004A5F5F4F6F4F7F4FF8013696CF01801B95
:10085000910BA0E0B0E084179507A607B70728F42E
:100860008191DF0112978C93F1CFF801E80DF91D0A
:100870001582C8010596D70115969C938E931497FF
:10088000B4016A5F7F4F600F711FCE0105960E9411
:10089000E102BAE08B0E911C4D815E816F817885FB
:1008A0002401092C000C66087708440E551E661EAC
:1008B000771EF801E80DF91DCF01801B910BA0E018
:1008C000B0E084159505A605B70528F48191DF01F0
:1008D00012978C93F1CF6401C40ED51EB8016C0D34
:1008E0007D1DFB0131971082C4010197800F911F7C
:1008F000F70197838683CE0101960E94E102A6014B
:100900004C5F5F4F49805A806B807C804A01052E86
:10091000000CAA08BB08840C951CA61CB71CF80187
:10092000E40FF51F9F01201B310BC901A0E0B0E0CF
:1009300088159905AA05BB0528F48191DF01129756
:100940008C93F0CFCA01840D951DF801E80FF91FB3
:10095000DF0111971C929A0121503109020F131FD8
:10096000D70119961C930E9318972181428150E06C
:1009700060E070E0BA0155274427522B2081422BBA
:100980002381722BF701428753876487758704960A
:100990002C960FB6F894DEBF0FBECDBFDF91CF917E
:1009A0001F910F91FF90EF90DF90CF90BF90AF908D
:1009B0009F908F907F906F905F904F90089585E803
:1009C00093E0089586EA93E00895FC01DB014C91E1
:1009D00050E060E070E04283538364837583119636
:1009E0008C911197582B428353836483758312969D
:1009F0008C911297682B428353836483758313967B
:100A00008C911397782B4283538364837583149658
:100A10004C91149750E060E070E046835783608704
:100A2000718715968C911597582B4683578360874D
:100A3000718716968C911697682B4683578360872B
:100A4000718717968C91782B4683578360877187BF
:100A500088E090E00895DC01FB0112968C911297DA
:100A6000808313968C911397818314968C9114979D
:100A7000828315968C911597838316968C91169781
:100A8000848317968C911797858318968C91189765
:100A9000868319968C91878388E090E00895EF9281
:100AA000FF920F931F93CF93DF937C018B01DC01A7
:100AB0001296ED91FC911397EF0109900020E9F750
:100AC0002197CE1BDF0BAE0160E070E0C8010E94F1
:100AD0000F03F70162817381AE01C80104960E9481
:100AE0000B14CE010496DF91CF911F910F91FF90CF
:100AF000EF9008952F923F924F925F926F927F9264
:100B00008F929F92AF92BF92CF92DF92EF92FF921D
:100B10000F931F93CF93DF93CDB7DEB728970FB610
:100B2000F894DEBF0FBECDBF8C015B01DB018C9161
:100B300011969C9111971296CC901297D12CE12C82
:100B4000F12C7601DD24CC24D92AC82A13968C9165
:100B5000F82AF80182819381A481B5818C159D05C5
:100B6000AE05BF0570F4B601660F771F660F771FDD
:100B7000828593850E942213D8011B969C938E93A5
:100B80001A97F801C282D382E482F582D5011796C2
:100B9000C12CD12C7601F4E08F2E912C98012A5F84
:100BA0003F4FF8014281538164817581C4010496ED
:100BB000C416D506E606F70680F54C9150E060E0D5
:100BC00070E0742F662755274427FD013397E08195
:100BD0004E2BFD013297E0815E2BFD013197E081C4
:100BE0006E2BF80146835783608771874C01089705
:100BF00042855385840F951FF9014081518162819F
:100C00007381FC014083518362837383FFEFCF1AAA
:100C1000DF0AEF0AFF0A1496C4CFF401EA0DFB1DA8
:100C200020813181C280D12CE12CF12C7601DD2490
:100C3000CC24D32AC22A2381F22A4C01F8018485CC
:100C40009585A685B7858C159D05AE05BF0570F405
:100C5000B601660F771F660F771F848995890E94FA
:100C60002213D80155969C938E935497F801C4860D
:100C7000D586E686F78620E030E0C12CD12C7601BF
:100C8000D8015096F8014485558566857785F5012C
:100C9000E80DF91DC4010496C416D506E606F7064C
:100CA00048F59180428150E060E070E0BA0155273C
:100CB0004427592990804929E3817E2BF801408BF4
:100CC000518B628B738B4C0184899589FC01E20FF7
:100CD000F31F4D915D916D917C91139740835183EA
:100CE00062837383FFEFCF1ADF0AEF0AFF0A2C5FDC
:100CF0003F4FC8CF20813181C280D12CE12CF12C13
:100D00007601DD24CC24D32AC22A2381F22A4C0185
:100D1000F80186899789A08DB18D8C159D05AE054A
:100D2000BF0560F4B601660F771F848D958D0E9414
:100D30002213D8015D969C938E935C97F801C68A26
:100D4000D78AE08EF18E412C512C32011801FAE144
:100D50002F0E311CF80186899789A08DB18D481618
:100D600059066A067B0608F05AC0B501680D791D60
:100D7000CE0101960E94E10294012C5F3F4FC98091
:100D8000DA80EB80FC80C901032E000CAA0BBB0BA0
:100D9000AC01BD014C0D5D1D6E1D7F1D4D835E833D
:100DA0006F837887F501E20FF31FAF014A195B09E2
:100DB000CA01A0E0B0E04D815E816F817885841723
:100DC0009507A607B70728F44191DF0112974C93C6
:100DD000ECCFC9018C0D9D1DF501E80FF91F31976E
:100DE0001082215031092A0D3B1DD8015B963C939E
:100DF0002E935A974C01C201880F991F5C96ED9172
:100E0000FC915D97E80FF91FD1018D919C91918321
:100E10008083BFEF4B1A5B0A6B0A7B0A9BCFC4012E
:100E200028960FB6F894DEBF0FBECDBFDF91CF91ED
:100E30001F910F91FF90EF90DF90CF90BF90AF90F8
:100E40009F908F907F906F905F904F903F902F90EA
:100E500008952F923F924F925F926F927F928F925E
:100E60009F92AF92BF92CF92DF92EF92FF920F9339
:100E70001F93CF93DF93CDB7DEB7A8970FB6F89443
:100E8000DEBF0FBECDBF8C010E94F3012B013C01E0
:100E9000980125573B4F3C8B2B8BF9018081918129
:100EA000A281B381A3019201281B390B4A0B5B0B72
:100EB000DA01C901893F9A42A105B10510F03597C1
:100EC0001082780144E8E41A4BEFF40AD7018D91BF
:100ED0009C91892B79F0F801E157FB4F808191813A
:100EE000A281B38184159505A605B70518F4F7010D
:100EF0001182108298012C573B4F388B2F87A80105
:100F000040585B4F5A8B498BC80148969E8B8D8BFE
:100F1000D801AA57BB4FBA8FA98FF801EC56FB4FE7
:100F2000F8A3EF8F215F3F4F3AA329A3180132E8BE
:100F3000231A3BEF330A4E5F5F4F588F4F8B895810
:100F40009B4F9CA38BA3A30192012C5E3F4F4F4F5D
:100F50005F4F2DA33EA34FA358A7F801848995891D
:100F6000A689B789892B8A2B8B2B81F4D8011296FD
:100F70008D919C911397DC01ED91FC910680F78196
:100F8000E02D19959C0197FF14C08AC20E94F301BD
:100F9000DC01CB0184199509A609B709F8018488F9
:100FA0009588A688B78888169906AA06BB06F0F623
:100FB0009EC2AF85B8898D919C911197820F931F26
:100FC0008D939C93F7014081518147305105D1F4B5
:100FD000AF89B88D8D919C911197AC014F5F5F4F98
:100FE0004D935C93F801E80FF91F208FF101808188
:100FF0009181019791838083892B09F0AECF88E09E
:1010000090E032C04115510539F52F3F310589F483
:1010100081E090E0F701918380832DA13EA14FA153
:1010200058A5ABA1BCA12D933D934D935C93139711
:1010300094CF0E94F301DC01CB0184199509A60924
:10104000B70989389341A105B10508F486CFF801A5
:10105000EA57FB4F10824BC241305105A9F42E3F95
:10106000310531F482E090E0D7018D939C9375CFE8
:10107000F70111821082A98DBA8D8C9181116DCFEB
:10108000C8010E94A90269CF4230510589F4F101DB
:1010900031832083AF89B88D1D921C9283E090E04C
:1010A000F70191838083AF85B8892D933C9355CF09
:1010B0004330510561F4322F2227F1018081918163
:1010C000280F391F3183208384E090E0CDCF443056
:1010D000510581F460E071E00E943A148F3F910560
:1010E00031F485E090E0F7019183808336CF11825F
:1010F000108233CF4530510571F4E989FA89318383
:10110000208386E090E0D7018D939C93EF85F8894A
:101110003183208322CF46305105A1F4322F22277C
:10112000A989BA898D919C911197280F391F2D9308
:101130003C9387E090E0F70191838083D1018D910A
:101140009C915ACF4830510509F007CFF701118221
:10115000108260E071E00E943A148F3F910509F01F
:10116000FCCEA989BA898D919C91009709F0C7C0DE
:10117000C8010E94A9028AE392E09A8389831C82B3
:101180001B8284EC92E09E838D8398878F839A875D
:1011900089871B861C861D861E865801B8EEAB1AF1
:1011A000BBEFBB0A6801E6EBCE1AEBEFDE0AD50116
:1011B000ED91FC913097D9F1848195819C838B834B
:1011C000808191819E838D8382819381DC01ED9169
:1011D000FC910480F581E02D199598878F83D501C6
:1011E000ED91FC9182819381DC01ED91FC9106806F
:1011F000F781E02D19959A87898720E032E040E059
:1012000050E02B873C874D875E87D8018D919C915C
:10121000F501A081B18118966D917C911997DC013F
:10122000ED91FC91AE014F5F5F4FC8011995B2E09F
:10123000AB0EB11CAC14BD0409F0B9CF812C92E007
:10124000992EA12CB12CF601A081B1811097E1F16A
:1012500012968D919C9113979C838B8314968D91FC
:101260009C9115979E838D83ED91FC91119704803D
:10127000F581E02DCD01199598878F83D6018D9149
:101280009C91DC01ED91FC910680F781E02D199590
:101290009A8789878B869C86AD86BE86D801ED911C
:1012A000FC9120803180F60180819181DC01ED91FB
:1012B000FC910280F381E02D1995AE014F5F5F4FE5
:1012C000BC01C801F1011995F2E0CF0ED11CCE147A
:1012D000DF0409F0B8CFF801EA57FB4F81E08083C3
:1012E00031964082518262827382AB89BC894D9271
:1012F0005D926D927C9213978FEF9FEFFDC08A30C5
:10130000910509F0A2C086E492E09A8389831B824A
:101310001C821D821E821F82188619861A860E94D0
:10132000F301F80180849184A284B3849B01AC0111
:10133000281939094A095B0949015A016D897E89D1
:10134000CE0101960E94E504C501B40128EE33E008
:1013500040E050E00E944E148B809C80AD80BE80A7
:10136000820E931EA41EB51E8B829C82AD82BE820D
:101370009B01AC0160E472E48FE090E00E942A14CB
:101380008F809884A984BA84DC01CB01880D991DD3
:10139000AA1DBB1D8F839887A987BA870E94F30176
:1013A0008F809884A984BA8436E3931A35E6A30A19
:1013B00034ECB30A28EE33E040E050E00E944E14D3
:1013C0002B8F3C8F4D8F5E8F9B01AC0160E472E4EC
:1013D0008FE090E00E942A14A5019401261B370B90
:1013E000480B590BCA01B9018B809C80AD80BE802F
:1013F00031E0831A9108A108B1082B8D3C8D4D8DE9
:101400005E8D821A930AA40AB50A20E03AEC4AE9F2
:101410005BE30E944E14820E931EA41EB51ED801DB
:101420001C968D929D92AD92BC921F97F801608B95
:10143000718B828B938B0E94F301AB89BC896D9376
:101440007D938D939C93139788CD8630910559F4A5
:101450006D897E898F8D98A10E947A0581E0E9A12E
:10146000FAA180837ACD8B30910521F4A98DBA8DB4
:101470001C9273CDFC01EF53FE4FEE0FFF1FE00FE8
:10148000F11F80819181009709F467CDDC01ED9116
:10149000FC910190F081E02D6D897E8919955DCDDB
:1014A000F801EA57FB4F8081882321F17801B9E7E1
:1014B000EB1ABBEFFB0AF70180819181A281B38116
:1014C000A3019201281B390B4A0B5B0BDA01C901FE
:1014D000853C9940A105B10568F0C8010E94A902A8
:1014E000D7014D925D926D927C92139703C08EEF5F
:1014F0009FEF02C080E090E0A8960FB6F894DEBFA0
:101500000FBECDBFDF91CF911F910F91FF90EF9054
:10151000DF90CF90BF90AF909F908F907F906F9013
:101520005F904F903F902F9008954F925F926F92EF
:101530007F92AF92BF92CF92DF92EF92FF920F9382
:101540001F93CF93DF93EC017B018A81FB018083A2
:101550008B8181838C8182838D818383DB011796CC
:1015600040E050E0BA01E4E0F0E04A805B806C804B
:101570007D808F010C5F1F4F44155505660577056B
:10158000C0F48A859B85E80FF91F3497D0802181AC
:1015900092818381FD013397D082319620833196E9
:1015A00090838C93F8014F5F5F4F6F4F7F4F14967E
:1015B000DCCFEE0DFF1D8C8580838D8581838E852C
:1015C00082838F85838380E090E040E050E0BA0121
:1015D0004C845D846E847F84F701E00FF11F0C5F03
:1015E0001F4F4415550566057705B8F4AC89BD89CC
:1015F000A80FB91FCC901196DC90119712963C91D0
:10160000129713962C91C082D182328323834F5F2D
:101610005F4F6F4F7F4F0496DBCF8E8980838F891A
:101620008183888D8283898D8383412C512C320163
:101630008E899F89A88DB98D481659066A067B0642
:1016400080F55201AA0CBB1CEC8DFD8DEA0DFB1D33
:10165000A081B181FD0101900020E9F731976F0170
:10166000CA1ADB0AA60160E070E0C701800F911F73
:101670000E940F030C5F1F4F8C8D9D8DFC01EA0DA6
:10168000FB1D60817181A601C701800F911F0E941F
:101690000B140C0D1D1DFFEF4F1A5F0A6F0A7F0A16
:1016A000C7CFC801DF91CF911F910F91FF90EF90AD
:1016B000DF90CF90BF90AF907F906F905F904F90F2
:1016C0000895EF92FF920F931F93CF93DF938C01B6
:1016D0007B01EC018A81FB018193AB81BC81ED012F
:1016E00009900020E9F72197CA1BDB0BAE0160E0EF
:1016F00070E0CF010E940F03F80163817481AE0195
:10170000C70105960E940B14CE010596DF91CF917B
:101710001F910F91FF90EF900895CF92DF92EF927B
:10172000FF920F931F93CF93DF936C01EB01FC01AA
:101730008281888383818983A481B581FD010190A1
:101740000020E9F731978F010A1B1B0BA80160E00D
:1017500070E0CE0102960E940F03F601648175814C
:10176000A801CE0106960E940B14C8010696F60148
:10177000A681B781FD0101900020E9F731977F0133
:10178000EA1AFB0AA70160E070E08C0F9D1F0E941F
:101790000F03065F1F4FF60166817781A701CE0117
:1017A000800F911F0E940B140E0D1F1DF601A085C6
:1017B000B185FD0101900020E9F731977F01EA1A18
:1017C000FB0AA70160E070E0CE01800F911F0E942C
:1017D0000F030C5F1F4FF60160857185A701CE01D5
:1017E000800F911F0E940B14C8018E0D9F1DF601E2
:1017F0006285438534852585C80FD91F6883498351
:101800003A832B830496DF91CF911F910F91FF9024
:10181000EF90DF90CF9008951F920F920FB60F9226
:1018200011240BB60F922F933F938F939F93EF93B7
:10183000FF932091190430911A0480911B04909118
:101840001C042817390731F4809131018F7D809372
:10185000310114C0E0911B04F0911C04E752FC4FCD
:10186000208180911B0490911C0401968F7399270D
:1018700090931C0480931B0420933601FF91EF91F9
:101880009F918F913F912F910F900BBE0F900FBEA4
:101890000F901F9018951F920F920FB60F92112460
:1018A0000BB60F922F933F938F939F93EF93FF93DA
:1018B0002091C3043091C4048091C5049091C60462
:1018C0002817390731F48091D1008F7D8093D100A2
:1018D00014C0E091C504F091C604ED57FB4F208180
:1018E0008091C5049091C60401968F7399279093B7
:1018F000C6048093C5042093D600FF91EF919F9179
:101900008F913F912F910F900BBE0F900FBE0F90B4
:101910001F9018951F920F920FB60F9211240BB6BD
:101920000F922F933F938F939F93EF93FF93209169
:101930006D0530916E0580916F05909170052817A7
:10194000390731F48091C9008F7D8093C90014C09C
:10195000E0916F05F0917005E35DFA4F2081809171
:101960006F059091700501968F739927909370057C
:1019700080936F052093CE00FF91EF919F918F91FF
:101980003F912F910F900BBE0F900FBE0F901F90A5
:1019900018951F920F920FB60F9211240BB60F924B
:1019A0002F933F938F939F93EF93FF93209117066D
:1019B000309118068091190690911A062817390758
:1019C00031F48091C1008F7D8093C10014C0E091FB
:1019D0001906F0911A06E952FA4F208180911906F2
:1019E00090911A0601968F73992790931A06809307
:1019F00019062093C600FF91EF919F918F913F911F
:101A00002F910F900BBE0F900FBE0F901F90189547
:101A10001F920F920FB60F9211240BB60F922F93B5
:101A20003F934F935F936F937F938F939F93AF9366
:101A3000BF93EF93FF938091300182FD07C08091A7
:101A400036016DE174E00E94B30102C0809136015D
:101A5000FF91EF91BF91AF919F918F917F916F9186
:101A60005F914F913F912F910F900BBE0F900FBE42
:101A70000F901F9018951F920F920FB60F9211247E
:101A80000BB60F922F933F934F935F936F937F9378
:101A90008F939F93AF93BF93EF93FF938091D00069
:101AA00082FD07C08091D60067EC74E00E94B3010C
:101AB00002C08091D600FF91EF91BF91AF919F91AD
:101AC0008F917F916F915F914F913F912F910F90E7
:101AD0000BBE0F900FBE0F901F9018951F920F9284
:101AE0000FB60F9211240BB60F922F933F934F9383
:101AF0005F936F937F938F939F93AF93BF93EF9376
:101B0000FF938091C80082FD07C08091CE0061E7FD
:101B100075E00E94B30102C08091CE00FF91EF9169
:101B2000BF91AF919F918F917F916F915F914F91F5
:101B30003F912F910F900BBE0F900FBE0F901F90F3
:101B400018951F920F920FB60F9211240BB60F9299
:101B50002F933F934F935F936F937F938F939F93B5
:101B6000AF93BF93EF93FF938091C00082FD07C0B6
:101B70008091C6006BE176E00E94B30102C08091C3
:101B8000C600FF91EF91BF91AF919F918F917F918F
:101B90006F915F914F913F912F910F900BBE0F90DE
:101BA0000FBE0F901F9018951F920F920FB60F92B5
:101BB00011242F933F938F939F93AF93BF93809163
:101BC000BD039091BE03A091BF03B091C0033091BB
:101BD000BC0323E0230F2D3720F40196A11DB11D76
:101BE00005C026E8230F0296A11DB11D2093BC035A
:101BF0008093BD039093BE03A093BF03B093C00333
:101C00008091C1039091C203A091C303B091C4031A
:101C10000196A11DB11D8093C1039093C203A093AF
:101C2000C303B093C403BF91AF919F918F913F9134
:101C30002F910F900FBE0F901F901895CF92DF92AB
:101C4000EF92FF92109262061092610688EEC82E03
:101C500083E0D82EE12CF12CC0926306D09264066A
:101C6000E0926506F09266066EE572E0709360069B
:101C700060935F068BE196E090936C0680936B0611
:101C800087ED95E090936E0680936D0685EC90E06D
:101C90009093700680936F0684EC90E090937206A8
:101CA0008093710680EC90E09093740680937306A5
:101CB00081EC90E0909376068093750682EC90E03C
:101CC000909378068093770686EC90E090937A065E
:101CD0008093790644E040937B0633E030937C06A2
:101CE00027E020937D0695E090937E0681E0809327
:101CF0007F061092B8051092B705C092B905D09230
:101D0000BA05E092BB05F092BC057093B6056093EE
:101D1000B505E1E7F5E0F093C205E093C105EDE21A
:101D2000F5E0F093C405E093C305EDECF0E0F0932B
:101D3000C605E093C505ECECF0E0F093C805E09330
:101D4000C705E8ECF0E0F093CA05E093C905E9ECBB
:101D5000F0E0F093CC05E093CB05EAECF0E0F093F3
:101D6000CE05E093CD05EEECF0E0F093D005E093E6
:101D7000CF054093D1053093D2052093D30590939E
:101D8000D4058093D50510920E0510920D05C092D2
:101D90000F05D0921005E0921105F0921205709394
:101DA0000C0560930B05E7ECF4E0F0931805E09365
:101DB0001705E3E8F4E0F0931A05E0931905E5ED63
:101DC000F0E0F0931C05E0931B05E4EDF0E0F093E8
:101DD0001E05E0931D05E0EDF0E0F0932005E09393
:101DE0001F05E1EDF0E0F0932205E0932105E2ED1F
:101DF000F0E0F0932405E0932305E6EDF0E0F093A6
:101E00002605E09325054093270530932805209368
:101E1000290590932A0580932B0510926404109253
:101E20006304C0926504D0926604E0926704F09265
:101E3000680470936204609361046DE174E07093D0
:101E40006E0460936D0469ED73E0709370046093A9
:101E50006F0465E371E0709372046093710464E34E
:101E600071E0709374046093730460E371E07093A5
:101E700076046093750461E371E070937804609375
:101E8000770462E371E070937A046093790466E307
:101E900071E070937C0460937B0440937D043093E5
:101EA0007E0420937F0490938004809381048AE7CA
:101EB00092E09093900680938F068FE596E0909342
:101EC00092068093910680E091EEA0E0B0E08093CE
:101ED000930690939406A0939506B093960610925D
:101EE000150B8EE692E09093240B8093230B1092B7
:101EF000250B1092260B1092270B1092280B109294
:101F00002E0B10922D0B10922F0B1092300B109263
:101F1000310B1092320B1092380B1092370B10923B
:101F2000390B10923A0B10923B0B10923C0B109213
:101F3000400B10923F0BE7EAFAE0119211928AE00F
:101F4000E93DF807D1F7E9EDFAE0119211928BE043
:101F5000EB30F807D1F7E7EAF6E0119288E0E73ACC
:101F6000F807D9F7E7EAF8E011928AE0E73AF807CC
:101F7000D9F71092A3061092A4061092A50610920B
:101F8000A60684E892E090938C0680938B0684ECFE
:101F900092E090938E0680938D0684EB93E090936D
:101FA0008206809381068BE896E090938406809366
:101FB000830610928A0610928906FF90EF90DF90B8
:101FC000CF900895CF93DF93CDB7DEB7A1970FB62B
:101FD000F894DEBF0FBECDBF789484B5826084BD17
:101FE00084B5816084BD85B5826085BD85B581601D
:101FF00085BD80916E00816080936E00109281009B
:102000008091810082608093810080918100816055
:102010008093810080918000816080938000809116
:10202000B10084608093B1008091B00081608093A2
:10203000B000809191008260809391008091910026
:1020400081608093910080919000816080939000E6
:102050008091A10082608093A1008091A1008160A5
:102060008093A1008091A00081608093A000809166
:102070002101826080932101809121018160809300
:1020800021018091200181608093200180917A005C
:10209000846080937A0080917A00826080937A00D5
:1020A00080917A00816080937A0080917A008068C4
:1020B00080937A001092C100C0909306D09094064D
:1020C000E0909506F0909606009191061091920688
:1020D000C11481EED806E104F10429F1D801549627
:1020E000ED91FC91559781E090E090960C9002C0A4
:1020F000880F991F0A94E2F7808360E079E08DE30E
:1021000090E0A70196010E944E14DA01C9010197DF
:10211000A109B109B695A795979587959C012115B9
:10212000B0E13B07C0F0D8015496ED91FC91559772
:10213000108260E874E88EE190E0A70196010E94A9
:102140004E14DA01C9010197A109B109B695A79505
:10215000979587959C01D8015096ED91FC915197E8
:1021600030835296ED91FC915397208391961C9267
:1021700091975696ED91FC915797408181E090E0C0
:102180009C015C960C905C9702C0220F331F0A944E
:10219000E2F7242B20835696ED91FC9157974081CE
:1021A0009C015D960C905D9702C0220F331F0A942C
:1021B000E2F7242B20835696ED91FC9157974081AE
:1021C0009C015E960C905E9702C0220F331F0A940A
:1021D000E2F7242B20835696ED91FC9157972081AE
:1021E0005F960C9002C0880F991F0A94E2F78095C1
:1021F0008223808310920C0B10920B0B10920E0B0B
:1022000010920D0B1092120B1092110B1092100BDA
:1022100010920F0BE7EAFAE080E090E02191319113
:10222000232BE9F4FC01EE0FFF1FE955F54F21E8E0
:1022300036E03183208383589F4F909386068093A6
:1022400085068FE896E0909388068093870690E055
:10225000A92E92E0B92EFE0131966F0149C0019678
:1022600089319105D9F6F3CF00E010E00115110591
:1022700009F076C01092C50385EC93E090938E062A
:1022800080938D068091870690918806DC01ED9100
:10229000FC9160918506709186060190F081E02D99
:1022A0004BE856E019958FE896E00E9429070E94B6
:1022B000CE018B0188EE482E83E0582E612C712CC4
:1022C0000E94CE01601B710B683E734038F0E1E064
:1022D0004E1A51086108710808511C4F41145104ED
:1022E0006104710469F7C7010E948A120E94A30168
:1022F000B0928E06A0928D068091870690918806F6
:10230000DC01ED91FC91609185067091860601904B
:10231000F081E02D4BE856E019958FE896E00E9499
:1023200029070E94F3012AE0A6010E94C311F601C9
:1023300001900020E9F731978F010C191D09B801B0
:102340006F5F7F4F80E090E00E9422137C01009736
:1023500009F48ACFFC011082B6010E94141486CFC2
:102360000331110510F003E110E0A801B70185EC7D
:1023700093E00E941B14F801EB53FC4F10827CCFBA
:10238000F8940C94A614BB27FA01A62F62177105C6
:1023900081059105330B30FB66F0AA27660F771F86
:1023A000881F991FAA1FA21710F0A21B639538500F
:1023B000A9F7A05DAA3308F0A95DA19336F7B11182
:1023C000B1931082CA010C94E511DC01FC01672F66
:1023D00071917723E1F7329704C07C916D937083FC
:1023E0006291AE17BF07C8F30895CF93DF93823091
:1023F000910510F482E090E0E091430BF091440BE2
:1024000020E030E0C0E0D0E0309711F14081518110
:1024100048175907C0F04817590761F48281938122
:10242000209719F09B838A832BC09093440B809351
:10243000430B26C02115310519F04217530718F434
:102440009A01BE01DF01EF010280F381E02DDCCFB4
:102450002115310509F1281B390B2430310590F481
:1024600012968D919C9113976115710521F0FB01D6
:102470009383828304C09093440B8093430BFD01AC
:10248000329644C0FD01E20FF31F819391932250D5
:1024900031092D933C933AC02091410B3091420B6E
:1024A000232B41F420911602309117023093420BF6
:1024B0002093410B20911402309115022115310512
:1024C00041F42DB73EB74091180250911902241BD8
:1024D000350BE091410BF091420BE217F307A0F4AA
:1024E0002E1B3F0B2817390778F0AC014E5F5F4F6A
:1024F0002417350748F04E0F5F1F5093420B40934F
:10250000410B8193919302C0E0E0F0E0CF01DF91B5
:10251000CF9108950F931F93CF93DF93009709F402
:102520008CC0FC013297138212820091430B1091F0
:10253000440B0115110581F420813181820F931F15
:102540002091410B3091420B2817390779F5F09310
:10255000420BE093410B71C0D80140E050E0AE1750
:10256000BF0750F412962D913C911397AD012115A0
:10257000310509F1D901F3CF9D01DA0133832283BB
:1025800060817181860F971F8217930769F4EC01B0
:1025900028813981260F371F2E5F3F4F31832083DB
:1025A0008A819B8193838283452B29F4F093440B8A
:1025B000E093430B42C01396FC93EE931297ED0108
:1025C000499159919E01240F351FE217F30771F4C9
:1025D00080819181840F951F029611969C938E9312
:1025E0008281938113969C938E931297E0E0F0E0A2
:1025F000D80112968D919C911397009719F0F801CC
:102600008C01F6CF8D919C9198012E5F3F4F820FE8
:10261000931F2091410B3091420B2817390769F421
:10262000309729F41092440B1092430B02C013828E
:1026300012821093420B0093410BDF91CF911F91B7
:102640000F9108956F927F928F929F92AF92BF9257
:10265000CF92DF92EF92FF920F931F93CF93DF936E
:10266000EC01009789F4CB01DF91CF911F910F917D
:10267000FF90EF90DF90CF90BF90AF909F908F90A2
:102680007F906F900C94F511FC01E60FF71F9C01F1
:1026900022503109E217F30708F4ACC0D9010D91BB
:1026A0001C91119706171707B0F00530110508F4B3
:1026B0009FC0C80104978617970708F499C0025075
:1026C0001109061B170B019311936D937C93CF0196
:1026D0000E948A128DC05B01A01AB10A4C01800EC3
:1026E000911EA091430BB091440B40E050E0E12CCF
:1026F000F12C109709F44AC0A815B905D1F56D90D1
:102700007C901197630182E0C80ED11CCA14DB04CF
:1027100080F1A3014A195B096A0182E0C80ED11C4D
:102720001296BC9012971396AC91B5E0CB16D104DB
:1027300040F0B282A38351834083D9016D937C938F
:102740000AC00E5F1F4FC301800F911FF9019183D3
:102750008083EB2DFA2FE114F10431F0D7011396A9
:10276000FC93EE93129744C0F093440BE093430B19
:102770003FC08D919C9111974817590708F4AC01FF
:102780007D0112960D90BC91A02DB3CF8091410B8D
:102790009091420B88159905E1F446175707C8F444
:1027A0008091140290911502009741F48DB79EB765
:1027B0004091180250911902841B950BE817F907F4
:1027C000C8F4F093420BE093410BF90171836083ED
:1027D0000FC0CB010E94F5117C01009759F0A801B0
:1027E000BE010E940B14CE010E948A12C70104C0D0
:1027F000CE0102C080E090E0DF91CF911F910F9158
:10280000FF90EF90DF90CF90BF90AF909F908F9010
:102810007F906F900895FB01DC0102C001900D9242
:1028200041505040D8F70895FB01DC0101900D9212
:102830000020E1F70895FB01DC014150504048F0D1
:1028400001900D920020C9F701C01D9241505040E7
:10285000E0F70895DB018F939F930E947014BF915E
:10286000AF91A29F800D911DA39F900DB29F900DDF
:102870001124089597FB072E16F4009407D077FDD6
:1028800009D00E947B1407FC05D03EF490958195F9
:102890009F4F0895709561957F4F0895A1E21A2E7C
:1028A000AA1BBB1BFD010DC0AA1FBB1FEE1FFF1FF4
:1028B000A217B307E407F50720F0A21BB30BE40B44
:1028C000F50B661F771F881F991F1A9469F760958B
:1028D0007095809590959B01AC01BD01CF01089545
:1028E0000E949714A59F900DB49F900DA49F800DFA
:1028F000911D11240895AA1BBB1B51E107C0AA1FFB
:10290000BB1FA617B70710F0A61BB70B881F991F90
:102910005A95A9F780959095BC01CD010895EE0FC9
:10292000FF1F881F8BBF0790F691E02D1994A29F7F
:10293000B001B39FC001A39F700D811D1124911D93
:10294000B29F700D811D1124911D0895F894FFCF41
:1029500048656C6C6F2066726F6D2041726475699A
:102960006E6F21000000450B2000726F737365725B
:1029700069616C5F6D7367732F52657175657374F0
:10298000506172616D00000000008D0BEF03EC03DD
:10299000E903000000002B05E504E204DF04000069
:1029A0000000610B91038E038B03000000000A01FD
:1029B000E2009301570177014C0100000000950AE5
:1029C0007A05880385030000000004022907FF013F
:1029D000000000004F0532032F032C034D65737375
:1029E0006167652066726F6D206465766963652036
:1029F00064726F707065643A206D657373616765AA
:102A0000206C6172676572207468616E2062756601
:102A10006665722E00393932636538613136383770
:102A200063656338633862643838336563373363AA
:102A30006134316431007374645F6D7367732F5355
:102A40007472696E67003966306539386264613660
:102A50003539383139383664646635336166613703
:102A60006134306534390031316162643733316348
:102A70003235393333323631636436313833626458
:102A80003132643632393500726F73736572696141
:102A90006C5F6D7367732F4C6F6700306164353105
:102AA00066383866633434383932663863313036E4
:102AB000383430373736343630303500726F737310
:102AC000657269616C5F6D7367732F546F706963B2
:102AD000496E666F00636437313636633734633569
:102AE000353263333131666263633266653561372F
:102AF0006263323839007374645F6D7367732F5487
:0C2B0000696D65006368617474657200A3
:00000001FF
